{"contracts/PricePrediction.sol":{"PricePrediction":{"abi":[{"inputs":[],"stateMutability":"nonpayable","type":"constructor"},{"anonymous":false,"inputs":[{"indexed":false,"internalType":"address","name":"sender","type":"address"},{"indexed":false,"internalType":"uint256","name":"rateOfChange","type":"uint256"},{"indexed":false,"internalType":"uint256","name":"price","type":"uint256"}],"name":"LogPriceDataUpdated","type":"event"},{"anonymous":false,"inputs":[{"indexed":true,"internalType":"address","name":"previousOwner","type":"address"},{"indexed":true,"internalType":"address","name":"newOwner","type":"address"}],"name":"OwnershipTransferred","type":"event"},{"inputs":[],"name":"getPriceData","outputs":[{"components":[{"internalType":"uint256","name":"lastRateOfChange","type":"uint256"},{"internalType":"uint256","name":"rateOfChange","type":"uint256"},{"internalType":"uint256","name":"lastPrice","type":"uint256"},{"internalType":"uint256","name":"price","type":"uint256"}],"internalType":"struct PricePrediction.PriceDataStruct","name":"price","type":"tuple"}],"stateMutability":"view","type":"function"},{"inputs":[],"name":"owner","outputs":[{"internalType":"address","name":"","type":"address"}],"stateMutability":"view","type":"function"},{"inputs":[],"name":"priceData","outputs":[{"internalType":"uint256","name":"lastRateOfChange","type":"uint256"},{"internalType":"uint256","name":"rateOfChange","type":"uint256"},{"internalType":"uint256","name":"lastPrice","type":"uint256"},{"internalType":"uint256","name":"price","type":"uint256"}],"stateMutability":"view","type":"function"},{"inputs":[],"name":"renounceOwnership","outputs":[],"stateMutability":"nonpayable","type":"function"},{"inputs":[{"internalType":"address","name":"newOwner","type":"address"}],"name":"transferOwnership","outputs":[],"stateMutability":"nonpayable","type":"function"},{"inputs":[{"internalType":"uint256","name":"_rateOfChange","type":"uint256"},{"internalType":"uint256","name":"_price","type":"uint256"}],"name":"updatePriceData","outputs":[{"internalType":"bool","name":"success","type":"bool"}],"stateMutability":"nonpayable","type":"function"}],"evm":{"bytecode":{"linkReferences":{},"object":"608060405234801561001057600080fd5b5061002d61002261003260201b60201c565b61003a60201b60201c565b6100fe565b600033905090565b60008060009054906101000a900473ffffffffffffffffffffffffffffffffffffffff169050816000806101000a81548173ffffffffffffffffffffffffffffffffffffffff021916908373ffffffffffffffffffffffffffffffffffffffff1602179055508173ffffffffffffffffffffffffffffffffffffffff168173ffffffffffffffffffffffffffffffffffffffff167f8be0079c531659141344cd1fd0a4f28419497f9722a3daafe3b4186f6b6457e060405160405180910390a35050565b6107e38061010d6000396000f3fe608060405234801561001057600080fd5b50600436106100625760003560e01c8063601d524914610067578063715018a6146100975780638da5cb5b146100a1578063a4a28168146100bf578063e61a5fe4146100dd578063f2fde38b146100fe575b600080fd5b610081600480360381019061007c9190610469565b61011a565b60405161008e91906104c4565b60405180910390f35b61009f61019c565b005b6100a96101b0565b6040516100b69190610520565b60405180910390f35b6100c76101d9565b6040516100d4919061059f565b60405180910390f35b6100e561021b565b6040516100f594939291906105c9565b60405180910390f35b6101186004803603810190610113919061063a565b610239565b005b60006101246102bc565b60006001905080600101548160000181905550806003015481600201819055508381600101819055508281600301819055507f1ccb8c0bd79905535b30875f4ffc458d0bb6d524d33fd23e32209c88c5b47cc333858560405161018993929190610667565b60405180910390a1600191505092915050565b6101a46102bc565b6101ae600061033a565b565b60008060009054906101000a900473ffffffffffffffffffffffffffffffffffffffff16905090565b6101e1610406565b6001604051806080016040529081600082015481526020016001820154815260200160028201548152602001600382015481525050905090565b60018060000154908060010154908060020154908060030154905084565b6102416102bc565b600073ffffffffffffffffffffffffffffffffffffffff168173ffffffffffffffffffffffffffffffffffffffff16036102b0576040517f08c379a00000000000000000000000000000000000000000000000000000000081526004016102a790610721565b60405180910390fd5b6102b98161033a565b50565b6102c46103fe565b73ffffffffffffffffffffffffffffffffffffffff166102e26101b0565b73ffffffffffffffffffffffffffffffffffffffff1614610338576040517f08c379a000000000000000000000000000000000000000000000000000000000815260040161032f9061078d565b60405180910390fd5b565b60008060009054906101000a900473ffffffffffffffffffffffffffffffffffffffff169050816000806101000a81548173ffffffffffffffffffffffffffffffffffffffff021916908373ffffffffffffffffffffffffffffffffffffffff1602179055508173ffffffffffffffffffffffffffffffffffffffff168173ffffffffffffffffffffffffffffffffffffffff167f8be0079c531659141344cd1fd0a4f28419497f9722a3daafe3b4186f6b6457e060405160405180910390a35050565b600033905090565b6040518060800160405280600081526020016000815260200160008152602001600081525090565b600080fd5b6000819050919050565b61044681610433565b811461045157600080fd5b50565b6000813590506104638161043d565b92915050565b600080604083850312156104805761047f61042e565b5b600061048e85828601610454565b925050602061049f85828601610454565b9150509250929050565b60008115159050919050565b6104be816104a9565b82525050565b60006020820190506104d960008301846104b5565b92915050565b600073ffffffffffffffffffffffffffffffffffffffff82169050919050565b600061050a826104df565b9050919050565b61051a816104ff565b82525050565b60006020820190506105356000830184610511565b92915050565b61054481610433565b82525050565b608082016000820151610560600085018261053b565b506020820151610573602085018261053b565b506040820151610586604085018261053b565b506060820151610599606085018261053b565b50505050565b60006080820190506105b4600083018461054a565b92915050565b6105c381610433565b82525050565b60006080820190506105de60008301876105ba565b6105eb60208301866105ba565b6105f860408301856105ba565b61060560608301846105ba565b95945050505050565b610617816104ff565b811461062257600080fd5b50565b6000813590506106348161060e565b92915050565b6000602082840312156106505761064f61042e565b5b600061065e84828501610625565b91505092915050565b600060608201905061067c6000830186610511565b61068960208301856105ba565b61069660408301846105ba565b949350505050565b600082825260208201905092915050565b7f4f776e61626c653a206e6577206f776e657220697320746865207a65726f206160008201527f6464726573730000000000000000000000000000000000000000000000000000602082015250565b600061070b60268361069e565b9150610716826106af565b604082019050919050565b6000602082019050818103600083015261073a816106fe565b9050919050565b7f4f776e61626c653a2063616c6c6572206973206e6f7420746865206f776e6572600082015250565b600061077760208361069e565b915061078282610741565b602082019050919050565b600060208201905081810360008301526107a68161076a565b905091905056fea264697066735822122040a8453b1a0b5c90b1a4958c36fcf50fc69ee95b568ec23952fc6c70dd675aa764736f6c63430008110033","opcodes":"PUSH1 0x80 PUSH1 0x40 MSTORE CALLVALUE DUP1 ISZERO PUSH2 0x10 JUMPI PUSH1 0x0 DUP1 REVERT JUMPDEST POP PUSH2 0x2D PUSH2 0x22 PUSH2 0x32 PUSH1 0x20 SHL PUSH1 0x20 SHR JUMP JUMPDEST PUSH2 0x3A PUSH1 0x20 SHL PUSH1 0x20 SHR JUMP JUMPDEST PUSH2 0xFE JUMP JUMPDEST PUSH1 0x0 CALLER SWAP1 POP SWAP1 JUMP JUMPDEST PUSH1 0x0 DUP1 PUSH1 0x0 SWAP1 SLOAD SWAP1 PUSH2 0x100 EXP SWAP1 DIV PUSH20 0xFFFFFFFFFFFFFFFFFFFFFFFFFFFFFFFFFFFFFFFF AND SWAP1 POP DUP2 PUSH1 0x0 DUP1 PUSH2 0x100 EXP DUP2 SLOAD DUP2 PUSH20 0xFFFFFFFFFFFFFFFFFFFFFFFFFFFFFFFFFFFFFFFF MUL NOT AND SWAP1 DUP4 PUSH20 0xFFFFFFFFFFFFFFFFFFFFFFFFFFFFFFFFFFFFFFFF AND MUL OR SWAP1 SSTORE POP DUP2 PUSH20 0xFFFFFFFFFFFFFFFFFFFFFFFFFFFFFFFFFFFFFFFF AND DUP2 PUSH20 0xFFFFFFFFFFFFFFFFFFFFFFFFFFFFFFFFFFFFFFFF AND PUSH32 0x8BE0079C531659141344CD1FD0A4F28419497F9722A3DAAFE3B4186F6B6457E0 PUSH1 0x40 MLOAD PUSH1 0x40 MLOAD DUP1 SWAP2 SUB SWAP1 LOG3 POP POP JUMP JUMPDEST PUSH2 0x7E3 DUP1 PUSH2 0x10D PUSH1 0x0 CODECOPY PUSH1 0x0 RETURN INVALID PUSH1 0x80 PUSH1 0x40 MSTORE CALLVALUE DUP1 ISZERO PUSH2 0x10 JUMPI PUSH1 0x0 DUP1 REVERT JUMPDEST POP PUSH1 0x4 CALLDATASIZE LT PUSH2 0x62 JUMPI PUSH1 0x0 CALLDATALOAD PUSH1 0xE0 SHR DUP1 PUSH4 0x601D5249 EQ PUSH2 0x67 JUMPI DUP1 PUSH4 0x715018A6 EQ PUSH2 0x97 JUMPI DUP1 PUSH4 0x8DA5CB5B EQ PUSH2 0xA1 JUMPI DUP1 PUSH4 0xA4A28168 EQ PUSH2 0xBF JUMPI DUP1 PUSH4 0xE61A5FE4 EQ PUSH2 0xDD JUMPI DUP1 PUSH4 0xF2FDE38B EQ PUSH2 0xFE JUMPI JUMPDEST PUSH1 0x0 DUP1 REVERT JUMPDEST PUSH2 0x81 PUSH1 0x4 DUP1 CALLDATASIZE SUB DUP2 ADD SWAP1 PUSH2 0x7C SWAP2 SWAP1 PUSH2 0x469 JUMP JUMPDEST PUSH2 0x11A JUMP JUMPDEST PUSH1 0x40 MLOAD PUSH2 0x8E SWAP2 SWAP1 PUSH2 0x4C4 JUMP JUMPDEST PUSH1 0x40 MLOAD DUP1 SWAP2 SUB SWAP1 RETURN JUMPDEST PUSH2 0x9F PUSH2 0x19C JUMP JUMPDEST STOP JUMPDEST PUSH2 0xA9 PUSH2 0x1B0 JUMP JUMPDEST PUSH1 0x40 MLOAD PUSH2 0xB6 SWAP2 SWAP1 PUSH2 0x520 JUMP JUMPDEST PUSH1 0x40 MLOAD DUP1 SWAP2 SUB SWAP1 RETURN JUMPDEST PUSH2 0xC7 PUSH2 0x1D9 JUMP JUMPDEST PUSH1 0x40 MLOAD PUSH2 0xD4 SWAP2 SWAP1 PUSH2 0x59F JUMP JUMPDEST PUSH1 0x40 MLOAD DUP1 SWAP2 SUB SWAP1 RETURN JUMPDEST PUSH2 0xE5 PUSH2 0x21B JUMP JUMPDEST PUSH1 0x40 MLOAD PUSH2 0xF5 SWAP5 SWAP4 SWAP3 SWAP2 SWAP1 PUSH2 0x5C9 JUMP JUMPDEST PUSH1 0x40 MLOAD DUP1 SWAP2 SUB SWAP1 RETURN JUMPDEST PUSH2 0x118 PUSH1 0x4 DUP1 CALLDATASIZE SUB DUP2 ADD SWAP1 PUSH2 0x113 SWAP2 SWAP1 PUSH2 0x63A JUMP JUMPDEST PUSH2 0x239 JUMP JUMPDEST STOP JUMPDEST PUSH1 0x0 PUSH2 0x124 PUSH2 0x2BC JUMP JUMPDEST PUSH1 0x0 PUSH1 0x1 SWAP1 POP DUP1 PUSH1 0x1 ADD SLOAD DUP2 PUSH1 0x0 ADD DUP2 SWAP1 SSTORE POP DUP1 PUSH1 0x3 ADD SLOAD DUP2 PUSH1 0x2 ADD DUP2 SWAP1 SSTORE POP DUP4 DUP2 PUSH1 0x1 ADD DUP2 SWAP1 SSTORE POP DUP3 DUP2 PUSH1 0x3 ADD DUP2 SWAP1 SSTORE POP PUSH32 0x1CCB8C0BD79905535B30875F4FFC458D0BB6D524D33FD23E32209C88C5B47CC3 CALLER DUP6 DUP6 PUSH1 0x40 MLOAD PUSH2 0x189 SWAP4 SWAP3 SWAP2 SWAP1 PUSH2 0x667 JUMP JUMPDEST PUSH1 0x40 MLOAD DUP1 SWAP2 SUB SWAP1 LOG1 PUSH1 0x1 SWAP2 POP POP SWAP3 SWAP2 POP POP JUMP JUMPDEST PUSH2 0x1A4 PUSH2 0x2BC JUMP JUMPDEST PUSH2 0x1AE PUSH1 0x0 PUSH2 0x33A JUMP JUMPDEST JUMP JUMPDEST PUSH1 0x0 DUP1 PUSH1 0x0 SWAP1 SLOAD SWAP1 PUSH2 0x100 EXP SWAP1 DIV PUSH20 0xFFFFFFFFFFFFFFFFFFFFFFFFFFFFFFFFFFFFFFFF AND SWAP1 POP SWAP1 JUMP JUMPDEST PUSH2 0x1E1 PUSH2 0x406 JUMP JUMPDEST PUSH1 0x1 PUSH1 0x40 MLOAD DUP1 PUSH1 0x80 ADD PUSH1 0x40 MSTORE SWAP1 DUP2 PUSH1 0x0 DUP3 ADD SLOAD DUP2 MSTORE PUSH1 0x20 ADD PUSH1 0x1 DUP3 ADD SLOAD DUP2 MSTORE PUSH1 0x20 ADD PUSH1 0x2 DUP3 ADD SLOAD DUP2 MSTORE PUSH1 0x20 ADD PUSH1 0x3 DUP3 ADD SLOAD DUP2 MSTORE POP POP SWAP1 POP SWAP1 JUMP JUMPDEST PUSH1 0x1 DUP1 PUSH1 0x0 ADD SLOAD SWAP1 DUP1 PUSH1 0x1 ADD SLOAD SWAP1 DUP1 PUSH1 0x2 ADD SLOAD SWAP1 DUP1 PUSH1 0x3 ADD SLOAD SWAP1 POP DUP5 JUMP JUMPDEST PUSH2 0x241 PUSH2 0x2BC JUMP JUMPDEST PUSH1 0x0 PUSH20 0xFFFFFFFFFFFFFFFFFFFFFFFFFFFFFFFFFFFFFFFF AND DUP2 PUSH20 0xFFFFFFFFFFFFFFFFFFFFFFFFFFFFFFFFFFFFFFFF AND SUB PUSH2 0x2B0 JUMPI PUSH1 0x40 MLOAD PUSH32 0x8C379A000000000000000000000000000000000000000000000000000000000 DUP2 MSTORE PUSH1 0x4 ADD PUSH2 0x2A7 SWAP1 PUSH2 0x721 JUMP JUMPDEST PUSH1 0x40 MLOAD DUP1 SWAP2 SUB SWAP1 REVERT JUMPDEST PUSH2 0x2B9 DUP2 PUSH2 0x33A JUMP JUMPDEST POP JUMP JUMPDEST PUSH2 0x2C4 PUSH2 0x3FE JUMP JUMPDEST PUSH20 0xFFFFFFFFFFFFFFFFFFFFFFFFFFFFFFFFFFFFFFFF AND PUSH2 0x2E2 PUSH2 0x1B0 JUMP JUMPDEST PUSH20 0xFFFFFFFFFFFFFFFFFFFFFFFFFFFFFFFFFFFFFFFF AND EQ PUSH2 0x338 JUMPI PUSH1 0x40 MLOAD PUSH32 0x8C379A000000000000000000000000000000000000000000000000000000000 DUP2 MSTORE PUSH1 0x4 ADD PUSH2 0x32F SWAP1 PUSH2 0x78D JUMP JUMPDEST PUSH1 0x40 MLOAD DUP1 SWAP2 SUB SWAP1 REVERT JUMPDEST JUMP JUMPDEST PUSH1 0x0 DUP1 PUSH1 0x0 SWAP1 SLOAD SWAP1 PUSH2 0x100 EXP SWAP1 DIV PUSH20 0xFFFFFFFFFFFFFFFFFFFFFFFFFFFFFFFFFFFFFFFF AND SWAP1 POP DUP2 PUSH1 0x0 DUP1 PUSH2 0x100 EXP DUP2 SLOAD DUP2 PUSH20 0xFFFFFFFFFFFFFFFFFFFFFFFFFFFFFFFFFFFFFFFF MUL NOT AND SWAP1 DUP4 PUSH20 0xFFFFFFFFFFFFFFFFFFFFFFFFFFFFFFFFFFFFFFFF AND MUL OR SWAP1 SSTORE POP DUP2 PUSH20 0xFFFFFFFFFFFFFFFFFFFFFFFFFFFFFFFFFFFFFFFF AND DUP2 PUSH20 0xFFFFFFFFFFFFFFFFFFFFFFFFFFFFFFFFFFFFFFFF AND PUSH32 0x8BE0079C531659141344CD1FD0A4F28419497F9722A3DAAFE3B4186F6B6457E0 PUSH1 0x40 MLOAD PUSH1 0x40 MLOAD DUP1 SWAP2 SUB SWAP1 LOG3 POP POP JUMP JUMPDEST PUSH1 0x0 CALLER SWAP1 POP SWAP1 JUMP JUMPDEST PUSH1 0x40 MLOAD DUP1 PUSH1 0x80 ADD PUSH1 0x40 MSTORE DUP1 PUSH1 0x0 DUP2 MSTORE PUSH1 0x20 ADD PUSH1 0x0 DUP2 MSTORE PUSH1 0x20 ADD PUSH1 0x0 DUP2 MSTORE PUSH1 0x20 ADD PUSH1 0x0 DUP2 MSTORE POP SWAP1 JUMP JUMPDEST PUSH1 0x0 DUP1 REVERT JUMPDEST PUSH1 0x0 DUP2 SWAP1 POP SWAP2 SWAP1 POP JUMP JUMPDEST PUSH2 0x446 DUP2 PUSH2 0x433 JUMP JUMPDEST DUP2 EQ PUSH2 0x451 JUMPI PUSH1 0x0 DUP1 REVERT JUMPDEST POP JUMP JUMPDEST PUSH1 0x0 DUP2 CALLDATALOAD SWAP1 POP PUSH2 0x463 DUP2 PUSH2 0x43D JUMP JUMPDEST SWAP3 SWAP2 POP POP JUMP JUMPDEST PUSH1 0x0 DUP1 PUSH1 0x40 DUP4 DUP6 SUB SLT ISZERO PUSH2 0x480 JUMPI PUSH2 0x47F PUSH2 0x42E JUMP JUMPDEST JUMPDEST PUSH1 0x0 PUSH2 0x48E DUP6 DUP3 DUP7 ADD PUSH2 0x454 JUMP JUMPDEST SWAP3 POP POP PUSH1 0x20 PUSH2 0x49F DUP6 DUP3 DUP7 ADD PUSH2 0x454 JUMP JUMPDEST SWAP2 POP POP SWAP3 POP SWAP3 SWAP1 POP JUMP JUMPDEST PUSH1 0x0 DUP2 ISZERO ISZERO SWAP1 POP SWAP2 SWAP1 POP JUMP JUMPDEST PUSH2 0x4BE DUP2 PUSH2 0x4A9 JUMP JUMPDEST DUP3 MSTORE POP POP JUMP JUMPDEST PUSH1 0x0 PUSH1 0x20 DUP3 ADD SWAP1 POP PUSH2 0x4D9 PUSH1 0x0 DUP4 ADD DUP5 PUSH2 0x4B5 JUMP JUMPDEST SWAP3 SWAP2 POP POP JUMP JUMPDEST PUSH1 0x0 PUSH20 0xFFFFFFFFFFFFFFFFFFFFFFFFFFFFFFFFFFFFFFFF DUP3 AND SWAP1 POP SWAP2 SWAP1 POP JUMP JUMPDEST PUSH1 0x0 PUSH2 0x50A DUP3 PUSH2 0x4DF JUMP JUMPDEST SWAP1 POP SWAP2 SWAP1 POP JUMP JUMPDEST PUSH2 0x51A DUP2 PUSH2 0x4FF JUMP JUMPDEST DUP3 MSTORE POP POP JUMP JUMPDEST PUSH1 0x0 PUSH1 0x20 DUP3 ADD SWAP1 POP PUSH2 0x535 PUSH1 0x0 DUP4 ADD DUP5 PUSH2 0x511 JUMP JUMPDEST SWAP3 SWAP2 POP POP JUMP JUMPDEST PUSH2 0x544 DUP2 PUSH2 0x433 JUMP JUMPDEST DUP3 MSTORE POP POP JUMP JUMPDEST PUSH1 0x80 DUP3 ADD PUSH1 0x0 DUP3 ADD MLOAD PUSH2 0x560 PUSH1 0x0 DUP6 ADD DUP3 PUSH2 0x53B JUMP JUMPDEST POP PUSH1 0x20 DUP3 ADD MLOAD PUSH2 0x573 PUSH1 0x20 DUP6 ADD DUP3 PUSH2 0x53B JUMP JUMPDEST POP PUSH1 0x40 DUP3 ADD MLOAD PUSH2 0x586 PUSH1 0x40 DUP6 ADD DUP3 PUSH2 0x53B JUMP JUMPDEST POP PUSH1 0x60 DUP3 ADD MLOAD PUSH2 0x599 PUSH1 0x60 DUP6 ADD DUP3 PUSH2 0x53B JUMP JUMPDEST POP POP POP POP JUMP JUMPDEST PUSH1 0x0 PUSH1 0x80 DUP3 ADD SWAP1 POP PUSH2 0x5B4 PUSH1 0x0 DUP4 ADD DUP5 PUSH2 0x54A JUMP JUMPDEST SWAP3 SWAP2 POP POP JUMP JUMPDEST PUSH2 0x5C3 DUP2 PUSH2 0x433 JUMP JUMPDEST DUP3 MSTORE POP POP JUMP JUMPDEST PUSH1 0x0 PUSH1 0x80 DUP3 ADD SWAP1 POP PUSH2 0x5DE PUSH1 0x0 DUP4 ADD DUP8 PUSH2 0x5BA JUMP JUMPDEST PUSH2 0x5EB PUSH1 0x20 DUP4 ADD DUP7 PUSH2 0x5BA JUMP JUMPDEST PUSH2 0x5F8 PUSH1 0x40 DUP4 ADD DUP6 PUSH2 0x5BA JUMP JUMPDEST PUSH2 0x605 PUSH1 0x60 DUP4 ADD DUP5 PUSH2 0x5BA JUMP JUMPDEST SWAP6 SWAP5 POP POP POP POP POP JUMP JUMPDEST PUSH2 0x617 DUP2 PUSH2 0x4FF JUMP JUMPDEST DUP2 EQ PUSH2 0x622 JUMPI PUSH1 0x0 DUP1 REVERT JUMPDEST POP JUMP JUMPDEST PUSH1 0x0 DUP2 CALLDATALOAD SWAP1 POP PUSH2 0x634 DUP2 PUSH2 0x60E JUMP JUMPDEST SWAP3 SWAP2 POP POP JUMP JUMPDEST PUSH1 0x0 PUSH1 0x20 DUP3 DUP5 SUB SLT ISZERO PUSH2 0x650 JUMPI PUSH2 0x64F PUSH2 0x42E JUMP JUMPDEST JUMPDEST PUSH1 0x0 PUSH2 0x65E DUP5 DUP3 DUP6 ADD PUSH2 0x625 JUMP JUMPDEST SWAP2 POP POP SWAP3 SWAP2 POP POP JUMP JUMPDEST PUSH1 0x0 PUSH1 0x60 DUP3 ADD SWAP1 POP PUSH2 0x67C PUSH1 0x0 DUP4 ADD DUP7 PUSH2 0x511 JUMP JUMPDEST PUSH2 0x689 PUSH1 0x20 DUP4 ADD DUP6 PUSH2 0x5BA JUMP JUMPDEST PUSH2 0x696 PUSH1 0x40 DUP4 ADD DUP5 PUSH2 0x5BA JUMP JUMPDEST SWAP5 SWAP4 POP POP POP POP JUMP JUMPDEST PUSH1 0x0 DUP3 DUP3 MSTORE PUSH1 0x20 DUP3 ADD SWAP1 POP SWAP3 SWAP2 POP POP JUMP JUMPDEST PUSH32 0x4F776E61626C653A206E6577206F776E657220697320746865207A65726F2061 PUSH1 0x0 DUP3 ADD MSTORE PUSH32 0x6464726573730000000000000000000000000000000000000000000000000000 PUSH1 0x20 DUP3 ADD MSTORE POP JUMP JUMPDEST PUSH1 0x0 PUSH2 0x70B PUSH1 0x26 DUP4 PUSH2 0x69E JUMP JUMPDEST SWAP2 POP PUSH2 0x716 DUP3 PUSH2 0x6AF JUMP JUMPDEST PUSH1 0x40 DUP3 ADD SWAP1 POP SWAP2 SWAP1 POP JUMP JUMPDEST PUSH1 0x0 PUSH1 0x20 DUP3 ADD SWAP1 POP DUP2 DUP2 SUB PUSH1 0x0 DUP4 ADD MSTORE PUSH2 0x73A DUP2 PUSH2 0x6FE JUMP JUMPDEST SWAP1 POP SWAP2 SWAP1 POP JUMP JUMPDEST PUSH32 0x4F776E61626C653A2063616C6C6572206973206E6F7420746865206F776E6572 PUSH1 0x0 DUP3 ADD MSTORE POP JUMP JUMPDEST PUSH1 0x0 PUSH2 0x777 PUSH1 0x20 DUP4 PUSH2 0x69E JUMP JUMPDEST SWAP2 POP PUSH2 0x782 DUP3 PUSH2 0x741 JUMP JUMPDEST PUSH1 0x20 DUP3 ADD SWAP1 POP SWAP2 SWAP1 POP JUMP JUMPDEST PUSH1 0x0 PUSH1 0x20 DUP3 ADD SWAP1 POP DUP2 DUP2 SUB PUSH1 0x0 DUP4 ADD MSTORE PUSH2 0x7A6 DUP2 PUSH2 0x76A JUMP JUMPDEST SWAP1 POP SWAP2 SWAP1 POP JUMP INVALID LOG2 PUSH5 0x6970667358 0x22 SLT KECCAK256 BLOCKHASH 0xA8 GASLIMIT EXTCODESIZE BYTE SIGNEXTEND 0x5C SWAP1 0xB1 LOG4 SWAP6 DUP13 CALLDATASIZE 0xFC CREATE2 0xF 0xC6 SWAP15 0xE9 JUMPDEST JUMP DUP15 0xC2 CODECOPY MSTORE 0xFC PUSH13 0x70DD675AA764736F6C63430008 GT STOP CALLER "},"methodIdentifiers":{"getPriceData()":"a4a28168","owner()":"8da5cb5b","priceData()":"e61a5fe4","renounceOwnership()":"715018a6","transferOwnership(address)":"f2fde38b","updatePriceData(uint256,uint256)":"601d5249"}}}}}