{
  "_format": "hh-sol-artifact-1",
  "contractName": "PricePrediction",
  "sourceName": "contracts/PricePrediction.sol",
  "abi": [
    {
      "inputs": [],
      "stateMutability": "nonpayable",
      "type": "constructor"
    },
    {
      "anonymous": false,
      "inputs": [
        {
          "indexed": false,
          "internalType": "address",
          "name": "sender",
          "type": "address"
        },
        {
          "indexed": false,
          "internalType": "uint256",
          "name": "rateOfChange",
          "type": "uint256"
        },
        {
          "indexed": false,
          "internalType": "uint256",
          "name": "price",
          "type": "uint256"
        }
      ],
      "name": "LogPriceDataUpdated",
      "type": "event"
    },
    {
      "anonymous": false,
      "inputs": [
        {
          "indexed": true,
          "internalType": "address",
          "name": "previousOwner",
          "type": "address"
        },
        {
          "indexed": true,
          "internalType": "address",
          "name": "newOwner",
          "type": "address"
        }
      ],
      "name": "OwnershipTransferred",
      "type": "event"
    },
    {
      "inputs": [],
      "name": "getPriceData",
      "outputs": [
        {
          "components": [
            {
              "internalType": "uint256",
              "name": "lastRateOfChange",
              "type": "uint256"
            },
            {
              "internalType": "uint256",
              "name": "rateOfChange",
              "type": "uint256"
            },
            {
              "internalType": "uint256",
              "name": "lastPrice",
              "type": "uint256"
            },
            {
              "internalType": "uint256",
              "name": "price",
              "type": "uint256"
            }
          ],
          "internalType": "struct PricePrediction.PriceDataStruct",
          "name": "price",
          "type": "tuple"
        }
      ],
      "stateMutability": "view",
      "type": "function"
    },
    {
      "inputs": [],
      "name": "owner",
      "outputs": [
        {
          "internalType": "address",
          "name": "",
          "type": "address"
        }
      ],
      "stateMutability": "view",
      "type": "function"
    },
    {
      "inputs": [],
      "name": "renounceOwnership",
      "outputs": [],
      "stateMutability": "nonpayable",
      "type": "function"
    },
    {
      "inputs": [
        {
          "internalType": "address",
          "name": "newOwner",
          "type": "address"
        }
      ],
      "name": "transferOwnership",
      "outputs": [],
      "stateMutability": "nonpayable",
      "type": "function"
    },
    {
      "inputs": [
        {
          "internalType": "uint256",
          "name": "_rateOfChange",
          "type": "uint256"
        },
        {
          "internalType": "uint256",
          "name": "_price",
          "type": "uint256"
        }
      ],
      "name": "updatePriceData",
      "outputs": [
        {
          "internalType": "bool",
          "name": "success",
          "type": "bool"
        }
      ],
      "stateMutability": "nonpayable",
      "type": "function"
    }
  ],
  "bytecode": "0x608060405234801561001057600080fd5b5061002d61002261003260201b60201c565b61003a60201b60201c565b6100fe565b600033905090565b60008060009054906101000a900473ffffffffffffffffffffffffffffffffffffffff169050816000806101000a81548173ffffffffffffffffffffffffffffffffffffffff021916908373ffffffffffffffffffffffffffffffffffffffff1602179055508173ffffffffffffffffffffffffffffffffffffffff168173ffffffffffffffffffffffffffffffffffffffff167f8be0079c531659141344cd1fd0a4f28419497f9722a3daafe3b4186f6b6457e060405160405180910390a35050565b6107548061010d6000396000f3fe608060405234801561001057600080fd5b50600436106100575760003560e01c8063601d52491461005c578063715018a61461008c5780638da5cb5b14610096578063a4a28168146100b4578063f2fde38b146100d2575b600080fd5b6100766004803603810190610071919061041f565b6100ee565b604051610083919061047a565b60405180910390f35b610094610170565b005b61009e610184565b6040516100ab91906104d6565b60405180910390f35b6100bc6101ad565b6040516100c99190610555565b60405180910390f35b6100ec60048036038101906100e7919061059c565b6101ef565b005b60006100f8610272565b60006001905080600101548160000181905550806003015481600201819055508381600101819055508281600301819055507f1ccb8c0bd79905535b30875f4ffc458d0bb6d524d33fd23e32209c88c5b47cc333858560405161015d939291906105d8565b60405180910390a1600191505092915050565b610178610272565b61018260006102f0565b565b60008060009054906101000a900473ffffffffffffffffffffffffffffffffffffffff16905090565b6101b56103bc565b6001604051806080016040529081600082015481526020016001820154815260200160028201548152602001600382015481525050905090565b6101f7610272565b600073ffffffffffffffffffffffffffffffffffffffff168173ffffffffffffffffffffffffffffffffffffffff1603610266576040517f08c379a000000000000000000000000000000000000000000000000000000000815260040161025d90610692565b60405180910390fd5b61026f816102f0565b50565b61027a6103b4565b73ffffffffffffffffffffffffffffffffffffffff16610298610184565b73ffffffffffffffffffffffffffffffffffffffff16146102ee576040517f08c379a00000000000000000000000000000000000000000000000000000000081526004016102e5906106fe565b60405180910390fd5b565b60008060009054906101000a900473ffffffffffffffffffffffffffffffffffffffff169050816000806101000a81548173ffffffffffffffffffffffffffffffffffffffff021916908373ffffffffffffffffffffffffffffffffffffffff1602179055508173ffffffffffffffffffffffffffffffffffffffff168173ffffffffffffffffffffffffffffffffffffffff167f8be0079c531659141344cd1fd0a4f28419497f9722a3daafe3b4186f6b6457e060405160405180910390a35050565b600033905090565b6040518060800160405280600081526020016000815260200160008152602001600081525090565b600080fd5b6000819050919050565b6103fc816103e9565b811461040757600080fd5b50565b600081359050610419816103f3565b92915050565b60008060408385031215610436576104356103e4565b5b60006104448582860161040a565b92505060206104558582860161040a565b9150509250929050565b60008115159050919050565b6104748161045f565b82525050565b600060208201905061048f600083018461046b565b92915050565b600073ffffffffffffffffffffffffffffffffffffffff82169050919050565b60006104c082610495565b9050919050565b6104d0816104b5565b82525050565b60006020820190506104eb60008301846104c7565b92915050565b6104fa816103e9565b82525050565b60808201600082015161051660008501826104f1565b50602082015161052960208501826104f1565b50604082015161053c60408501826104f1565b50606082015161054f60608501826104f1565b50505050565b600060808201905061056a6000830184610500565b92915050565b610579816104b5565b811461058457600080fd5b50565b60008135905061059681610570565b92915050565b6000602082840312156105b2576105b16103e4565b5b60006105c084828501610587565b91505092915050565b6105d2816103e9565b82525050565b60006060820190506105ed60008301866104c7565b6105fa60208301856105c9565b61060760408301846105c9565b949350505050565b600082825260208201905092915050565b7f4f776e61626c653a206e6577206f776e657220697320746865207a65726f206160008201527f6464726573730000000000000000000000000000000000000000000000000000602082015250565b600061067c60268361060f565b915061068782610620565b604082019050919050565b600060208201905081810360008301526106ab8161066f565b9050919050565b7f4f776e61626c653a2063616c6c6572206973206e6f7420746865206f776e6572600082015250565b60006106e860208361060f565b91506106f3826106b2565b602082019050919050565b60006020820190508181036000830152610717816106db565b905091905056fea2646970667358221220ef381745620c922dda31ceb652884ffbba9e05803a435fb4c7fa5012104b6eb164736f6c63430008110033",
  "linkReferences": {},
  "deployedLinkReferences": {}
}